:020000040800F2
:10000000C84F00209D010008B7280008A32500085C
:10001000B5280008F1090008E749000800000000C1
:1000200000000000000000000000000005010008C2
:10003000390A000800000000490100087132000878
:10004000B7010008B7010008B7010008B7010008B0
:10005000B7010008B7010008B7010008B7010008A0
:10006000B7010008B7010008B7010008B701000890
:10007000B7010008B7010008B7010008B701000880
:10008000B7010008B7010008B7010008B701000870
:1000900071490008B7010008B7010008B70100085E
:1000A000B701000815330008B7010008B7010008C0
:1000B000B7010008B7010008B7010008B701000840
:1000C000B7010008B7010008B7010008B701000830
:1000D000DD2C0008B7010008B7010008B7010008CF
:1000E000B7010008B7010008B7010008DFF810D019
:1000F00000F0E0FB00480047BD5D0008AFF3008062
:10010000C84F0020224B19680868B0E8F00F80F350
:100110000988BFF36F8F4FF0000080F311884EF015
:100120000D0E70470000000006480068006880F36C
:10013000088862B661B6BFF34F8FBFF36F8F00DFE1
:1001400000BF00BF08ED00E0EFF30980BFF36F8F41
:100150000F4B1A6820E9F00F106008B54FF05000FF
:1001600080F31188BFF34F8FBFF36F8F07F076FCDA
:100170004FF0000080F31188BDE808401968086856
:10018000B0E8F00F80F30988BFF36F8F704700BFAE
:100190004C000020EFF305807047000006488047C0
:1001A00006480047FEE7FEE7FEE7FEE7FEE7FEE75C
:1001B000FEE7FEE7FEE7FEE713330008ED00000868
:1001C000202A04DB203A21FA02F00021704721FAAC
:1001D00002F3D040C2F12002914008431946704713
:1001E00040EA01039B0703D009E008C9121F08C0B9
:1001F000042AFAD203E011F8013B00F8013B521E39
:10020000F9D27047D2B201E000F8012B491EFBD2AF
:1002100070470022F6E710B513460A460446194611
:10022000FFF7F0FF204610BD30B505462A460B46C5
:1002300012F8010B13F8014B08B1A042F8D01CB121
:10024000002802D06D1CF1E7284630BDCAB2401E1E
:1002500010F8011F8A4202D00029F9D1002070470E
:10026000421C10F8011B0029FBD1801A70470000C6
:1002700070B50F4D00B92868002412E00A4602E06C
:100280009E4203D0521C1378002BF9D1DAB22243DC
:1002900005D02BB124B1002100F8011B04E0044675
:1002A000401C0678002EE9D12860204670BD000071
:1002B000BC02002070B5064604F0BAFB046805468F
:1002C0000A220021304600F04EF92C6070BD2DE965
:1002D000FE4F804681EA0300C00F0C46009021F0DB
:1002E000004123F00045B8EB0200A94105D2404689
:1002F000214690461C460B46024623F00040104320
:1003000047D0270DC7F30A00C3F30A510290401AE1
:10031000019040286BDAC3F3130040F4801B00986F
:10032000924620B10023D2EB030A63EB0B0B01983A
:100330005946C0F14002504600F0F4F806460D461A
:1003400050465946019A00F0FCF810EB0800614154
:10035000002487EA115284EAE7731A4340D0009AD6
:1003600062B3019A012A4FEA075215DC001B61EBC8
:1003700002014FF0004202EA0752CDE90042001CA0
:1003800041F5801132462B4600F034F903B0BDE848
:10039000F08F40462146F9E7001B61EB0201001C8B
:1003A00041F5801300185B412018A2F5001747EBB8
:1003B000030140EAD570B6196D4111E06D084FEAAE
:1003C000360645EAC0754FEA0752001B61EB020191
:1003D000001C41F5801149084FEA300000195141D5
:1003E00032462B4603B0BDE8F04F00F0F4B8009859
:1003F000012240000023D0EB020263EBE07300987F
:1004000021464FEAE074B8EB000061EB0401E9E734
:1004100083F000435BE781F0004158E70EB5C10F60
:1004200080EAE0700844CA07002140F233438DE8B7
:100430000E000A460B4600F0DDF803B000BD0EB515
:1004400040F2334102910021CDE900110A460B46EA
:1004500000F0D0F803B000BD70B5C1F30A5201F04E
:1004600000450024C1F3130140F2FF3341F4801131
:100470009A4201DA002070BD40F233439A42A2F260
:10048000334203DC5242FFF79BFE00E090402C43D6
:10049000F1D0404270BD30B50B460146002020220D
:1004A000012409E021FA02F59D4205D303FA02F581
:1004B000491B04FA02F52844151EA2F10102F1DCE1
:1004C00030BD2DE9F05F0546002092469B468846E8
:1004D0000646814640241BE02846414647462246C0
:1004E000FFF76EFE53465A46C01A914110D311468B
:1004F0001846224600F016F82D1A67EB01084F4601
:1005000022460120002100F00DF817EB00094E41B2
:10051000201EA4F10104DFDC484631462A4643464A
:10052000BDE8F09F202A04DB203A00FA02F1002007
:1005300070479140C2F1200320FA03F31943904021
:100540007047202A06DBCB17203A41FA02F043EA33
:10055000E07306E041FA02F3D040C2F1200291407C
:100560000843194670472DE9F04791460F468046EB
:100570000446002614F8015B2DB100F0ADF90068C7
:10058000405DC007F6D12B2D02D02D2D18D0641E52
:100590004A463946204600F0A3F927B13968A142FE
:1005A00001D1C7F8008071054FF002040BD540421D
:1005B000002803DD04F03CFA0460A007BDE8F087E2
:1005C00046F48066E4E70028F8DA04F031FA0460C3
:1005D0006FF00040F2E710B5141E73F1000408DA62
:1005E000401C41F1000192185B411A4301D120F0F7
:1005F000010010BD2DE9F04D92469B4611B1B1FAB4
:1006000081F202E0B0FA80F220329046FFF78AFFD2
:1006100004460F4640EA0A0041EA0B0153465A4697
:10062000084313D0114653EA010019D0C8F1400223
:100630005046FFF7C5FD05460E4650465946424610
:10064000FFF770FF084305D0012004E0204639463B
:10065000BDE8F08D0020054346EAE0762C433743A1
:100660000A986305E40AA0EB08000022FD0A44EAA8
:1006700047540A3002D500200146E9E70105101968
:100680006941DDE9084500196941BDE8F04DA2E77F
:100690002DE9FE4F81EA030404F0004421F00041FB
:1006A00000944FF0000B23F0004350EA01045ED0A9
:1006B00052EA03045BD0C3F30A54C1F30A552C4435
:1006C000A4F2F3340194A0FB0254C1F3130141F4EA
:1006D0008011C3F3130343F4801301FB024400FBB6
:1006E000034E840A970A44EA815447EA8357A4FBDD
:1006F000076802958D0A05FB07854FEA932C04FBDA
:100700000C542705029D4FEA065847EA1637B5EB09
:1007100008056EEB070C870E920E47EA811742EA36
:100720008312A7FB0201B6EB0B0164EB00042B0D57
:1007300043EA0C335E1844EB1C50DA465146E7FBA3
:100740000201C5F313044FEA0B3343EA14534FEA93
:100750000432019C43EA0603A4F10C040294009CB9
:10076000CDE900B4FFF746FF03B0BDE8F08F0020ED
:100770000146F9E72DE9F04D81EA030404F0004B4E
:1007800021F0004514464FF0000A23F0004150EAE2
:10079000050220D054EA01021DD0C5F30A570246D3
:1007A000C5F31303C1F31300C1F30A5640F48015D7
:1007B00043F48013A7EB0608101BD64608F2FD3859
:1007C00073EB050002D308F1010801E092185B41C8
:1007D000B8F1000F03DA00200146BDE8F08D0020DB
:1007E0004FF48011064684460EE0171B73EB050795
:1007F00005D3121B63EB050306434CEA010C4908C1
:100800004FEA300092185B4150EA0107EDD152EAFD
:10081000030012D082EA040083EA0501084305D0F0
:10082000101BAB4106D20122002306E000224FF04C
:10083000004302E06FF0010253101AEB06004CEB8C
:10084000085110EB0A0041EB0B01BDE8F04DFFF73A
:10085000C2BEC1F30A52C1F3130140F2FF3341F4A7
:1008600080119A4202DA00200146704740F2334379
:100870009A42A2F2334202DC5242FFF7A1BCFFF7D8
:1008800051BE000030B5041E71F1000404DB4FF0CE
:100890000044404264EB0101141E73F1000405DBC7
:1008A0001C464FF00043524263EB0403994208BFD9
:1008B000904230BD064C074D06E0E06840F0010371
:1008C00094E8070098471034AC42F6D3FFF712FCC7
:1008D0005C8400087C84000800487047C8830008D6
:1008E0002DE9F05F82460078002715468B460AF115
:1008F0000104B946302801D09DB113E014F8010B72
:100900000127782803D0582801D045B10AE00DB15D
:10091000102D07D10027102514F8010B02E008253F
:1009200000E00A250026B0460EE005FB080005FBA6
:1009300006F1012701EB10461FFA80F8B6F5803F5B
:1009400000D3B94614F8010B294600F018F8002826
:10095000EBDABBF1000F05D00FB1641E00E0544686
:10096000CBF80040B9F1000F06D004F061F8022185
:100970000160C81EBDE8F09F48EA0640FAE73A2841
:1009800000D2303820F02002412A01D3A2F13700F2
:10099000884201D34FF0FF30704770B58C1810F8C3
:1009A000015B15F0070301D110F8013B2A1106D1B4
:1009B00010F8012B03E010F8016B01F8016B5B1ECE
:1009C000F9D12B0705D40023521E0DD401F8013BA9
:1009D000FAE710F8013BCB1A921C03E013F8015B15
:1009E00001F8015B521EF9D5A142D8D3002070BD99
:1009F000FEE70020704700207047000010B500227D
:100A00000449054802F0C2FD0449034802F0B8FD5C
:100A1000002010BDD4420020283A0020EC3E0020E7
:100A200010B50146034802F0ABFD024802F08CFD10
:100A3000002010BD283A0020704772B6FEE7000083
:100A400010B590F821100024022903D004218163FD
:100A500001243DE001680A6822F00E020A60016884
:100A60000A6822F001020A601A4A0168914201D123
:100A7000012121E0174A1432914201D110211BE0DB
:100A8000144A2832914201D1891515E0114A3C32AD
:100A9000914201D189140FE00E4A5032914202D1A5
:100AA0004FF4803108E00B4A6432914202D14FF496
:100AB000801101E04FF08071064A083A516001212F
:100AC00080F82110002180F82010416B01B1884787
:100AD000204610BD0800024070B5044600F010F931
:100AE0000546601C02D004480078044400F008F970
:100AF000401BA042FAD370BD3C0000202DE9F84F06
:100B0000DFF8B891002409F1040A0AF1040B234626
:100B10000F270BF1040EC9E00125A5402A40AA4287
:100B20007DD1674ED1F804C0ACEB0608B44532D095
:100B300014DCBCF1030F3AD009DCBCF1000F2AD061
:100B4000BCF1010F1CD0BCF1020F31D11DE0BCF192
:100B5000110F17D0BCF1120F2AD119E0B8F5881F78
:100B600019D006DCB8F5803F15D0B8F5801F1FD12D
:100B700011E0B8F5001F0ED0B8F5041F18D10AE037
:100B8000CB6815E0CB681B1D12E0CB6808330FE083
:100B9000CB680C330CE08B682BB1012B4FF00803B2
:100BA00003D0456104E0042302E0056100E0002376
:100BB000FF2A01D8064601E000F104064FEA840549
:100BC00001D9A5F12005D6F8008007FA05FC28EA2E
:100BD0000C0803FA05F548EA0508C6F800804D68D8
:100BE000ED0062D5374DAE6946F00106AE61AD69E4
:100BF00024F0030605F001050095334D06EB050CC6
:100C0000DCF80850A607360F07FA06F825EA0805AB
:100C1000DFF8B880404503D14FF0000817E044E00A
:100C2000DFF8AC80404502D14FF001080FE0DFF85B
:100C3000A480404502D14FF0020808E0DFF8988018
:100C4000404502D14FF0030801E04FF0040808FAD4
:100C500006F848EA0508CCF808804D68D9F8006025
:100C6000ED034D4601D5164300E096432E604D68D6
:100C7000DAF80060AD03554601D5164300E096430F
:100C80002E604D68DBF80060ED025D4601D516432D
:100C900000E096432E604D68DEF80060AD027546B8
:100CA00001D5164300E096432E60641C0D682A4669
:100CB000E5407FF431AFBDE8F88F0000000401404B
:100CC0000000111000100240000001400008014027
:100CD000000C0140001001400014014080680840F1
:100CE00000D001207047C26821EA02030A4043EAAB
:100CF0000241016170470AB1016170470904FBE7D5
:100D000001488068704700003C000020024881686C
:100D100002781144816070473C000020074810B5FC
:100D2000016841F010010160032000F095F80020F7
:100D300000F006F800F03EF8002010BD0020024050
:100D400000B5014687B00022192000F065F819208F
:100D500000F054F81348816941F4006181618069B1
:100D600005A900F400600690684600F0D9FD00F087
:100D7000F7FD0D490D4AB0FBF1F10D48491E026027
:100D8000416040F2E7320021C0E90321816001F0B7
:100D9000F3F910B1012007B000BD054801F01AFABF
:100DA000F9E700000010024040420F00002C014013
:100DB000940600200F4808B5816941F00101816166
:100DC000816901F001010091C16941F08051C16167
:100DD000C069002200F0805000900F21901E00F0AA
:100DE0001BF80548416821F0E06141F00071416065
:100DF00008BD00000010024000000140002809DB8F
:100E000000F01F02012191404009800000F1E02024
:100E1000C0F8001170470000F0B40E4B1B680C4680
:100E2000C3F30223C3F10705042D00D90425191DBE
:100E3000072901D2002300E0DB1E012606FA05F196
:100E4000491E214099409E40761E16403143F0BC19
:100E500003F0DEBD0CED00E0064900F00702086873
:100E60004FF6FF03184040EA0220034A104308608F
:100E7000704700000CED00E00000FA0510B50C060C
:100E800007D501F0070101EB810100EBC10028301B
:100E900005E001EB810100EBC10000F5B47099B2EF
:100EA00032B1012202730181190C4181002010BD71
:100EB00000220273C180F9E7704701EB810200EB69
:100EC000C202D0F8E802D26B02F04DBD01EB810204
:100ED00000EBC202D0F8E802D2F87C2102F0A6BDF5
:100EE00070B504460B0601F0070000EB800104EB2F
:100EF000C1014FF001024FF0000503D581F8292010
:100F0000283103E081F8695101F5B471087094F853
:100F1000A802012808D084F8A822206803F0C6F9A6
:100F200084F8A852002070BD022070BD70B5044640
:100F300001F00F006268904201D9012070BD0B06DC
:100F400001F0070000EB800104EBC1014FF001024A
:100F50004FF0000503D581F82920283103E081F8FE
:100F6000695101F5B4718D70087094F8A8020128D8
:100F700008D084F8A822206803F035FA84F8A85233
:100F8000002070BD022070BD2DE9F05F04685FEAAB
:100F9000424C0B788D69B4F850C04FF000064BF608
:100FA0008F7948F2800A48F68F7B48F2C00E4FF4E2
:100FB00080672AD54FF0020808EBC308C44407EB4A
:100FC0004C07E45BC4F30904A54203D32D1B8D61D8
:100FD00001D00BE08E61066836F8235005EA09055A
:100FE00085F4005545EA0A0526F82350520609D52E
:100FF0000D78036833F8252002EA0B0242EA0E025C
:1010000023F8252084B30A8929E04FF0060808EB6D
:10101000C308C44407EB4C07E45BC4F30904A542CE
:1010200003D32D1B8D6101D00BE08E61066836F86D
:10103000235005EA090585F4005545EA0A0526F816
:101040002350520609D40B78056835F8232002EAAC
:101050000B0242EA0E0225F823202CB14A89496985
:101060000068234603F08EFC2046BDE8F09F2DE982
:10107000F05F05460C4600685FEA426C164622782F
:10108000A369B0F850C04FF0000148F68F774CF2DA
:1010900080094FF6FF7B4FF4004E4FF4806A6CD509
:1010A0004FF0020808EBC208E0440AEB480C30F8A5
:1010B0000C00C0F30900834211D91B1AA3610FD0A1
:1010C000730407D52E6836F822303B4043EA090303
:1010D00026F8223094F82420012A08D0C6E0A16125
:1010E00011462846FFF7E9FE70046CD4BEE0626941
:1010F00002446261E2690244E2612369226A9A421F
:1011000002D31846111A03E084F824100AB11046DD
:101110002162617811B1012923D02BE02968B1F84F
:1011200050201144227801EB021101F2044148B130
:101130003E280FD84208C30700D0521C0BEA822277
:101140000A8017E00A8822F4F8420A800A8842F4EA
:101150000042F5E74209C30600D1521E4EEA822240
:10116000EEE72968B1F850201144227801EB021112
:10117000A1F8040483B2228974E04FF0060808EB5A
:10118000C208E0440AEB480C30F80C00C0F3090038
:10119000834211D31B1AA3610FD0730407D42E68A6
:1011A00036F822303B4043EA090326F8223094F80F
:1011B0002420012A11D059E0A16111462846FFF7E9
:1011C0007CFE700452D42278296831F8220038401D
:1011D00040EA090021F8220048E0626902446261A5
:1011E000E2690244E2612369226A9A4203D3184603
:1011F000111A216204E00AB11046216284F8241019
:101200006278296812B1012A22D029E0B1F8502071
:101210001144227801EB021101F20C4148B13E2841
:101220000FD84208C30700D0521C0BEA82220A8062
:1012300016E00A8822F4F8420A800A8842F4004242
:10124000F5E74209C30600D1521E4EEA8222EEE7BC
:10125000B1F850201144227801EB0211A1F80C04DE
:10126000628983B26169286803F0AAFB2278296841
:1012700031F8220048F6BF73184080F0300048F281
:101280008003184321F822000020BDE8F09F01F000
:10129000070101EB810100EBC100D0F88401704728
:1012A0002DE9F04104460F0601F0070000EB800134
:1012B00004EBC1014FF001064FF0000503D581F8A2
:1012C0002960283103E081F8695101F5B471087093
:1012D0000A61CB704A7802B1C881022B00D10D712E
:1012E00094F8A802012809D084F8A862206802F0C6
:1012F000AFFE284684F8A852BDE8F0810220FBE743
:1013000070B50C4601F0070505EB850100EBC10146
:10131000C1E95F230022C1F8842181F8692181F8A5
:10132000685101F5B4716207006803F0B1F800205C
:1013300070BD70B504460D4601F007006168884233
:1013400001D9012070BD29064FF000064FF00102BF
:1013500007D500EB800104EBC10181F82920283179
:1013600007E005EB850104EBC10181F8696101F536
:10137000B4718A70087094F8A802012807D084F824
:10138000A822206803F06BF8680702D006E002206C
:1013900070BD04F52C71206803F023F884F8A8626E
:1013A000002070BD70B50C4601F0070505EB850106
:1013B00000EBC101C1E90F23012281F84C208B64AD
:1013C00000234B6481F8292001F8285F6207006838
:1013D00003F05EF8002070BD1FB50446006803F0FE
:1013E000CDFA000402D5204601F066FA206803F029
:1013F000C5FA40050CD5206830F8441F21F48061FF
:101400000180204600F01EF90021204600F035F949
:10141000206803F0B3FA400405D5206830F8441F73
:1014200021F480410180206803F0A8FA800405D5EA
:10143000206830F8441F21F400510180206803F037
:101440009DFAC00414D5206830F8401F21F0040133
:101450000180206830F8401F21F0080101802046FB
:1014600000F003F9206830F8441F21F48051018016
:10147000206803F083FA00053ED522680020694603
:1014800032F8203021F81030401CC0B20828F7D3C1
:1014900032F8400F40F001001080206830F8402FF3
:1014A00022F0010202802068B0F844205205FBD5EA
:1014B00030F8442F22F4806202800020236831F843
:1014C000102023F82020401CC0B20828F6D3206842
:1014D00030F8401F41F008010180206830F8441FB7
:1014E00021F400610180206830F8401F41F00401C0
:1014F0000180204600F0F6F8206803F03FFA8005EE
:1015000008D5206830F8441F21F40071018020467E
:1015100000F0AFF8206803F031FAC00505D5206867
:1015200030F8441F21F4807101801FBD2DE9F04186
:1015300086B0040004D094F8A902002520B108E088
:10154000012006B0BDE8F08184F8A852204600F0E2
:101550005BF8032084F8A902206802F03BFF04F145
:101560001001142288466846FEF73AFE94E80F0000
:1015700002F09AFE0226D0BB0021206803F018FA80
:10158000002001270FE000BF00EB800104EBC10148
:1015900081F8297001F8280FC881CD700D614D6167
:1015A000401CC0B28D6161688142EDD8002011E01D
:1015B00000EB800104EBC10181F8695181F86801F9
:1015C00081F86B51C1F87851C1F87C51401CC0B210
:1015D000C1F8805161688142EAD8142241466846C8
:1015E000FEF7FEFD94E80F0002F0EBFE10B184F868
:1015F000A962A5E784F8245084F8A972206802F053
:10160000DEFE00209DE7000008B500680B49884217
:1016100012D10B48C16941F40001C161C0690022C7
:1016200000F40000009005211420FFF7F5FBBDE851
:1016300008401420FFF7E2BB08BD0000005C00403A
:101640000010024070B5044680680125022801D0D0
:10165000FFF7F3F92946D4F8E80202F0D0FAD4F8FB
:10166000E802BDE8704002F08CBAD0F8E80202F05F
:10167000B0BAD0F8E80202F0B6BA10B5044690F855
:10168000A80201280BD0012084F8A80284F82410B5
:10169000206803F08FF9002084F8A80210BD022012
:1016A00010BDD0F8E82200F52C71104602F0B3BA54
:1016B00010B5044690F8A802012810D0012084F843
:1016C000A802206803F04BF901212046FFF7F4FB44
:1016D000206802F072FE002084F8A80210BD0220EB
:1016E00010BD000010B50446D0F8E80202F0D2FAAE
:1016F000A069002804D00348016841F00601016098
:1017000010BD000010ED00E02DE9F843054600781B
:10171000354CC00754D0E0690026C00008D4E06909
:1017200040F08050E061E069012600F080500090B8
:101730002E480168C90512D40168804641F48071C1
:101740000160FFF7DDFA074605E000BFFFF7D8FAB2
:10175000C01B642823D8D8F80000C005F6D5206A3D
:1017600010F4407021D0A98801F4407181421CD04E
:10177000206A1F49012220F440700A6000220A609A
:101780002062C00711D0FFF7BBFA074641F2883844
:1017900008E000BFFFF7B4FAC11B414502D903209E
:1017A000BDE8F883206A8007F4D5206A696820F4D0
:1017B0004070084320621EB1E06920F08050E06173
:1017C0002878800705D56068A96820F44040084360
:1017D00060602878C00605D56068E96820F480005C
:1017E000084360600020DBE700100240007000400A
:1017F000400442422DE9F0470F46050061D0434EB8
:10180000306800F00700B84209D2306820F00700C5
:1018100038433060306800F00700B84251D1286882
:101820003B4C810712D5400703D5606840F4E06067
:1018300060602878000703D5606840F460506060FD
:101840006068A96820F0F000084360602878C0074D
:1018500028D06868012810D02168022810D0890794
:1018600000292EDA616821F0030101436160FFF76E
:1018700047FA804641F288390DE021688903EFE795
:101880008901EDE7FFF73CFAA0EB0801494502D9D1
:101890000320BDE8F0876068696800F00C00B0EBD9
:1018A000810FEFD1306800F00700B8420BD93068E3
:1018B00020F0070038433060306800F00700B8427D
:1018C00001D00120E5E72878400705D56068E96880
:1018D00020F4E060084360602878000706D560685F
:1018E000296920F4605040EAC100606000F048F8C7
:1018F0006168084AC1F30311515CC8400649086099
:1019000006480068FFF71CFA0020C2E700200240EA
:10191000001002401883000848000020400000200A
:101920000F2202600C4A536803F0030343605368BC
:1019300003F0F0038360536803F4E063C36052680C
:101940004FF4E06303EAD20202610448006800F049
:1019500007000860704700000010024000200240AD
:101960000448054900684968044AC1F3C221515C32
:10197000C84070474800002000100240288300083B
:1019800012A185B00FC98DE80F0014A0144A006899
:1019900004905168134801F00C03042B10D0082B5D
:1019A0000ED1C1F38343C9031DF803000AD5516862
:1019B00004AAC1F34041515C0A4A5043B0FBF1F024
:1019C00005B0704708494843FAE7000002030405E0
:1019D000060708090A0B0C0D0E0F1010010200007B
:1019E0000010024000127A0000093D002DE9F84F76
:1019F000040070D02078C04DC00749D06868C0F39B
:101A00008100012807D06868C0F38100022809D14D
:101A10006868C00306D52868800339D56068002847
:101A2000E7D035E06068B0F5803F0BD010B1B0F57D
:101A3000A02F11D0286820F480302860286820F476
:101A4000802002E0286840F480302860606890B10F
:101A5000FFF756F906460AE0286840F4802028601F
:101A6000F0E700BFFFF74CF9801B642873D82868A3
:101A70008003F7D50CE0FFF743F9064605E000BF09
:101A8000FFF73EF9801B6428F0D828688003F7D45C
:101A900020789A4E80074FF001094FF0000839D5A1
:101AA000686810F00C0F07D06868C0F38100022846
:101AB00009D16868C00306D42868800714D5206956
:101AC000012808D110E02069B0B1C6F80090FFF7F6
:101AD00017F9074605E00AE1FFF712F9C01B0228D3
:101AE000C4D828688007F7D52868616920F0F80015
:101AF00040EAC10028600DE0C6F80080FFF700F959
:101B0000074604E0FFF7FCF8C01B022823D828682A
:101B10008007F7D4207800072CD57948A169D9B17E
:101B2000C0F80090FFF7ECF8074604E0FFF7E8F88C
:101B3000C01B02280FD8686A8007F7D571484FF498
:101B4000FA510068B0FBF1F0009000BF0098411E10
:101B50000091FAD20EE080E0C0F80080FFF7D0F8E4
:101B6000074604E0FFF7CCF8C01B022875D8686A66
:101B70008007F7D42078400760D5E8690027C000C7
:101B800008D4E86940F08050E861E869012700F076
:101B9000805000905C480168C90513D401688346F1
:101BA00041F480710160FFF7ABF8824606E000BFA8
:101BB000FFF7A6F8A0EB0A0064284ED8DBF8000077
:101BC000C005F5D5E06801280AD008B1052813D072
:101BD000286A20F001002862286A20F0040002E050
:101BE000286A40F001002862E06841F2883B98B121
:101BF000FFF786F882460BE0286A40F0040028626E
:101C0000EEE700BFFFF77CF8A0EB0A0159455AD870
:101C1000286A8007F6D50CE0FFF772F8824605E0E7
:101C2000FFF76EF8A0EB0A0159454CD8286A8007E7
:101C3000F6D41FB1E86920F08050E861E06988B30C
:101C40006968C1F38101022944D00228C6F8608086
:101C500004D0FFF755F8044638E034E0FFF750F8B9
:101C6000074604E0FFF74CF8C01B02282BD8286871
:101C70008001F7D4206AB0F5803F05D16868A1687B
:101C800020F4003008436860D4E90801084369681B
:101C900021F4741108436860C6F86090FFF730F8CB
:101CA000044606E025E000BFFFF72AF8001B0228E3
:101CB00009D828688001F7D51BE000BFFFF720F89E
:101CC000001B022802D90320BDE8F88F2868800194
:101CD000F4D40EE00128F7D06868226A00F480315D
:101CE000914204D1616A00F47010884201D0012051
:101CF000EAE70020E8E7000000100240000042424E
:101D000080044242480000200070004070470000FC
:101D100038B50446006842688168C9434B0606D559
:101D2000CB0704D1D3435B0601D4216C05E08B07BC
:101D300008D4D3431B0605D4616C01B02046BDE82E
:101D4000304008478B0601D54B0646D4D3439B064B
:101D500043D44B060AD494F85130032B3ED0636D24
:101D600043F004036365C36883680093890609D45C
:101D7000616D41F00101616581680091016821F0A8
:101D800040010160606D002827D02068416821F083
:101D9000E0014160012084F85100900722D02068C2
:101DA000416821F003014160104DE06C40B1456392
:101DB000E06CFEF745FE18B1606D40F040006065D4
:101DC000A06C002809D04563A06CFEF739FE0028FE
:101DD00003D0606D40F04000606538BDC168806828
:101DE000009038BD2046FFF791FF38BDE92C000870
:101DF00070B5040009D0606A002540B125616561B5
:101E0000A56294F8510040B10CE0012070BD6068FB
:101E1000B0F5827FF4D0E561F2E784F850502046B7
:101E200000F040F8022084F851002068016821F099
:101E300040010160A088218900F4827001F404410E
:101E40000843A18901F400610843217C01F00201EB
:101E50000843217D01F001010843218B01F4007149
:101E60000843217F01F03801084394F8201001F065
:101E700080010843218D01F4005108432168086066
:101E8000A069042101EA1040216848602068C16906
:101E900021F40061C1616565012084F851000020D2
:101EA00070BD000030B585B0002400940194029408
:101EB00003940068194988422DD11948C16941F439
:101EC0008041C161C16901F480410491816941F09F
:101ED000080181618069134D00F0080004904FF4FF
:101EE000204000900220019003200390694628467C
:101EF000FEF704FE4FF48040CDE900046946284611
:101F00000294FEF7FBFD002205212420FEF784FF4A
:101F10002420FEF773FF05B030BD000000380040FC
:101F200000100240000C01402DE9F84F044690F8E3
:101F3000500000270A9E1D4692468B464FF001092D
:101F400001280ED0012084F85000FEF7D9FE80460B
:101F500094F85100616801280CD0B1F5827F07D157
:101F600002E00220BDE8F88FA16809B9042801D079
:101F70000227C2E0BBF1000F27D0BAF1000F24D036
:101F80001DB394F85100042802D0052084F85100B4
:101F900000206065C4F838A0E587A587C4F830B094
:101FA000E586A5862064606420680168490603D43C
:101FB000016841F040010160E068B0F5006F6068C1
:101FC00005D0E8B3012D46D07FE0012795E008B1A8
:101FD000012D39D1206B21680088C860206B801CDE
:101FE0002063E08E401EE0862EE02068816889072D
:101FF0000FD5E18E69B1B9F1010F0AD1216B0988C2
:10200000C160206B801C2063E08E401EE0864FF094
:10201000000920688168C9070CD0E18F51B1C06800
:10202000A16B0880A06B801CA063E08F401EE0873E
:102030004FF00109FEF764FEA0EB0800B04200E09B
:1020400009E001D3701C50D1E08E0028CDD1E08F83
:102050000028CAD13FE0206B216800780873206B0C
:10206000401C2063E08E401EE0862EE020688168E0
:1020700089070FD5E18E69B1B9F1010F0AD1216B42
:1020800009780173206B401C2063E08E401EE086BF
:102090004FF0000920688168C9070CD0E18F51B169
:1020A000C068A16B0870A06B401CA063E08F401E4D
:1020B000E0874FF00109FEF723FEA0EB0800B042D5
:1020C00002D3701C01D010E07EB1E08E0028CDD18B
:1020D000E08F0028CAD142463146204600F00CFE6F
:1020E00028B101272020606507E0032705E0A068EC
:1020F00018B92068C16880680090012084F85100F8
:10210000002084F8500038462CE7704770470000E4
:1021100070B590F83C20012A26D0012480F83C407C
:10212000022280F83D2003685A689D6822F07006FC
:102130000A6832435A600D4B02689A4208D0B2F1E5
:10214000804F05D00A4B9A4202D00A4B9A4204D1E2
:10215000496825F080031943916080F83D400021D3
:1021600080F83C10084670BD022070BD002C014074
:10217000000400400008004010B5040003D094F8AB
:102180003D0010B107E0012010BD002084F83C00A4
:10219000204600F01EF8022084F83D00211D206832
:1021A00001F0BEF8012084F8460084F83E0084F86F
:1021B0003F0084F8400084F8410084F8420084F82D
:1021C000430084F8440084F8450084F83D00002072
:1021D00010BD704790F83D10012901D001207047D3
:1021E000022180F83D100168CA6842F00102CA600D
:1021F00000680B49884208D0B0F1804F05D00949EA
:10220000884202D00849884204D1816801F0070160
:10221000062903D0016841F00101016000207047E8
:10222000002C014000040040000800402DE9F0416E
:102230000D46040003D094F83D0018B108E00120D9
:10224000BDE8F081002084F83C00204600F040F812
:10225000022084F83D002068816844F2070291431F
:102260008160211D206801F05BF822689068916907
:10227000166A2B68AF69034340F20330814341EA99
:102280000721A868EF6908434FF6FC418843E968D5
:1022900040EA0720014328692F6A000140EA07301D
:1022A000084369686D6926F0220646EA0515294348
:1022B00093602268906154F8460B0162012004F893
:1022C0001F09E0752076E0762077A0750020B7E73B
:1022D00030B585B00021009101910291039103680E
:1022E000264902222648B3F1804F1BD0254DC02439
:1022F000AB422AD1CB6943F00203CB61CB6903F037
:10230000020304938B6943F004038B618969009491
:1023100001F0040104916946CDF80820FEF7EEFBB8
:1023200005B030BDCB6943F00103CB61CB6903F04D
:10233000010304938B6943F004038B61896901F005
:102340000401049103210091E5E70F488342E7D19E
:10235000C86940F00400C861C86900F00400049036
:10236000886940F0080088618869694600F00800C3
:102370000490009402920548D0E70000001002404B
:10238000000801400004004000080040000C01402B
:1023900070B590F83E60044690F83F5090F8423097
:1023A00090F84320022021B104290ED0012E1BD128
:1023B00014E0012E18D1012B16D184F83E0084F8C8
:1023C000420001220021206820E0012D0CD1012AC9
:1023D0000AD184F83F0084F8430014E0012D03D1B2
:1023E000012B01D1012A01D0012070BD84F83E00EB
:1023F00084F83F0084F8420084F843000122002161
:10240000206800F0C3FF01220421206800F0BEFF15
:102410002068016841F001010160002070BD704733
:1024200070B50446006801694FF00005C94389078B
:1024300015D4C168C943890711D4E91E016101207F
:102440002077206880698007204602D0FFF7E7FFE9
:1024500004E000F098F8204600F096F82577206810
:102460000169C943490717D4C168C943490713D44F
:102470006FF004010161022020772068806910F468
:10248000407F204602D0FFF7CAFF04E000F07BF84F
:10249000204600F079F8257720680169C9430907CB
:1024A00016D4C168C943090712D46FF0080101614D
:1024B000042020772068C0698007204602D0FFF7FB
:1024C000AEFF04E000F05FF8204600F05DF82577ED
:1024D00020680169C943C90617D4C168C943C90640
:1024E00013D46FF010010161082020772068C069C3
:1024F00010F4407F204602D0FFF791FF04E000F087
:1025000042F8204600F040F8257720680169C94369
:10251000C90708D1C168C943C90704D1891E01612F
:10252000204600F033F820680169C943090609D440
:10253000C168C943090605D46FF0800101612046D6
:10254000FFF7E3FD20680169C943490609D4C16862
:10255000C943490605D46FF040010161204600F0EF
:102560001FF820680169C94389060BD4C168C943B3
:10257000890607D46FF0200101612046BDE8704054
:10258000FFF7C4BD70BD7047704700000068034985
:10259000884201D1FEF7BABB70470000002C014011
:1025A0007047FEE7F0B500230A24302537261F4682
:1025B00011E000BFB4EB107F02D905EB107C01E005
:1025C00006EB107C01F813C001EB430C00015B1C0F
:1025D0008CF80170DBB29342ECD3F0BD2DE9F04FE3
:1025E00085B00024394800940194029403948169D1
:1025F00041F010018161816901F01001049181694C
:1026000041F020018161816901F02001049181691B
:1026100041F004018161816901F004010491816943
:1026200041F0080181618069DFF8A49000F00800A2
:102630004FF460450490002229464846FEF75BFBB4
:10264000DFF890B0012204215846FEF754FBDFF872
:1026500088A040F60147002239465046FEF74BFB62
:102660004FF44078002241465846FEF744FB00955F
:10267000022601250396CDE9015469464846FEF736
:102680003DFA0420CDE90005CDE9024669465846E9
:10269000FEF734FA00970396CDE901546946504697
:1026A000FEF72CFA009669465046CDE90145FEF743
:1026B00025FA0320CDE90240CDE900856946584658
:1026C000FEF71CFA05B0BDE8F08F000000100240D4
:1026D0000010014000080140000C01400F4810B5F7
:1026E0000D4901604FF48271416000218160C16039
:1026F0004FF400720161C0E905120822C0E9072108
:10270000416281620A21C162FFF772FB002801D099
:1027100072B6FEE710BD0000003800401003002034
:1027200010B58CB024216846FDF773FD00241548D0
:1027300009944FF080410A94C0E900144FF6FE71ED
:10274000C0E90241046184610320CDE90004012055
:10275000CDE902040494CDE905400794694609488F
:102760000894FFF763FD08B172B6FEE7099409A962
:1027700004480A94FFF7CCFC002801D072B6FEE7AB
:102780000CB010BD6803002010B58CB02421684641
:10279000FDF73FFD00241648099414490A94C0E946
:1027A00000144FF6FE71C0E9024104618461032008
:1027B000CDE900040120CDE902040494CDE90540EF
:1027C000079469460A480894FFF730FD08B172B6CD
:1027D000FEE7099409A906480A94FFF799FC002826
:1027E00001D072B6FEE70CB010BD0000000400403E
:1027F000B003002010B58CB024216846FDF709FD18
:1028000000241648099414490A94C0E900144FF6AC
:10281000FE71C0E90241046184610320CDE9000436
:102820000120CDE902040494CDE9054007946946EE
:102830000A480894FFF7FAFC08B172B6FEE709945B
:1028400009A906480A94FFF763FC002801D072B674
:10285000FEE70CB010BD000000080040F8030020A7
:1028600010B500220F49104801F056F808B1FEF7E4
:10287000E4F80E490C4801F033FA08B1FEF7DDF830
:102880000B49094800F074FE08B1FEF7D6F8064877
:1028900001F07CFA002803D0BDE81040FEF7CDB867
:1028A00010BD000048010020283A002084020020CA
:1028B00098010020FEE7FEE72DE9F84F044640F6B8
:1028C0008F7B48F60F7A4FF002094FF4806868E179
:1028D000B0F8441011F00F0638D030F826703904E3
:1028E0007ED530F8261001EA0B0141F0800120F876
:1028F000261006EB860004EBC00595F8740105F57B
:10290000B47500286DD0E87802286BD02A78216849
:1029100031F8220048F68F73184048F2C00318437C
:1029200021F822002978206830F82120B0F85030B2
:1029300052047DD509EBC1015A1808EB4201415AF6
:102940008905890D009174D02A89D2E0C9062DD459
:10295000018801EA0A0141F400410180206804F184
:102960002805B0F850302A7809EBC2015A1808EB54
:102970004201405AC0F309006064E16B0844E0631F
:1029800000212046FEF799FA94F8240000289ED0F2
:10299000A86900289BD194F8240040F080012068A9
:1029A000A0F84C10002084F82400FAE0018804F517
:1029B000B4750A0521D5B0F850302A78062101EB0C
:1029C000C2015A1808EB4201405A04F52C71C0F3B9
:1029D0000903EB61EA88206801F0D4FF216802E076
:1029E000A2E062E072E0088800EA0B0040F080009C
:1029F00008802046FEF755FED3E00904D5D50188AE
:102A000001EA0B0141F0800101802068B0F85020FC
:102A10002B78062101EBC3010A4408EB4201405A1E
:102A200083059B0DEB6110D0696971B1EA8801E003
:102A300053E051E0206801F0A5FFE96968690844A6
:102A4000686100212046FEF741FA2068B0F8501076
:102A50000844296900F20C4051B13E2910D84A08B7
:102A6000C90700D0521C4FF6FF7101EA82210FE026
:102A7000018821F4F8410180018841F4004107E018
:102A80004A09C90600D1521E4FF4004141EA822191
:102A90000180206801884BF68F72114081F440510B
:102AA00048F28002114301807BE02068B0F85010AA
:102AB0002A78062303EBC2020A4408EB4201415A7A
:102AC0008905890D009118D0EA8812E03A46294616
:102AD0002046FEF759FA00900FE0062202EBC101F2
:102AE0005A1808EB4201415A8905890D009104D01A
:102AF0006A896969009B01F045FFE969009808440B
:102B0000E8616969009808446861A86918B1296991
:102B10000098814204D929782046FEF7D7F903E0CE
:102B20002946206801F0B4FC38063AD5226806EB45
:102B3000860004EBC00132F8260000EA0A0040F4E7
:102B4000004022F8260091F82B002831022801D1FC
:102B5000F80522D42268B2F850300D7809EBC50090
:102B6000034408EB4300105A8A69C0F3090082420B
:102B70000CD9121A8A610BD04A6902444A61CA69A7
:102B80001044C861206801F083FC0AE000208861DD
:102B9000E9B22046FEF791F903E03A462046FEF7F7
:102BA00066FA2068B0F8441009043FF591AE0020A1
:102BB000BDE8F88F334810B5006898B0C088A0F51C
:102BC00042415D3959D1304C206804F0FAFD0028AB
:102BD00053D04FF0FF3212A9206805F0D9F82B48E6
:102BE000DDE9161240F8051F284C4260DDE912129B
:102BF0008160C260DDE91412016125494261283C0F
:102C0000098920F8021CA01C2188C0F80610432165
:102C1000A0F80B103121A0F813101EA02622D0E935
:102C20000010A161E061A11C6846FDF7D9FA1D22E0
:102C300016490DF12600FDF7D3FA02F0CDFB10F096
:102C4000040F17484FF4806101D0002200E00122F8
:102C5000FEF751F84321684604F01AFD2088A0F5DC
:102C60007F41FF390BD0401C0E4920804FF080502F
:102C70000860BFF34F8FBFF36F8F18B010BD0020F7
:102C8000F2E70000DC0000202400002028010020E2
:102C9000D4020020456E636F64657231000000004D
:102CA000000C014004ED00E038B50B4CC4E905010F
:102CB0004DF2EE20ADF8000040F20A30ADF802000F
:102CC0004CF25D21684604F0F7FC6060002802D0F9
:102CD0004FF48271818038BDF43900200148FFF73C
:102CE00017B800001003002010B5406A0021C1870A
:102CF000C186FFF70BF810BD38B50B4600920446AD
:102D00000022802100F00CF8002804D0606D40F013
:102D100020006065032038BDFF2000F05DB8000092
:102D20002DE9F8431E46914688460446089DFDF766
:102D3000E7FF401B351AFDF7E3FF0746254800680B
:102D4000C0F3CB30684338E0701C37D0FDF7D8FFB4
:102D5000C01BA84203D215B1009860B32CE02068D4
:102D6000416821F0E00141606068B0F5827F0BD1DD
:102D7000A068B0F5004F02D0B0F5806F04D1206894
:102D8000016821F040010160A06AB0F5005F09D13F
:102D90002068016821F4005101602068016841F455
:102DA00000510160012084F85100002084F8500097
:102DB0000320BDE8F8830025401E0090206881684C
:102DC00038EA010004D000214945BDD10020F0E7D8
:102DD0000121F9E74800002001B582B000208DF8FC
:102DE00004004FF480500090012301AA02A9064874
:102DF000FFF79AF828B100224FF400510348FDF77D
:102E00007AFF9DF804000EBD100300200010014061
:102E1000FFF726FD00244FF47A75284603F084F866
:102E20000A2C02D103F0AEFD0024641CF5E700007B
:102E300000279A4CDFF868B2B8463D464FF4C061AF
:102E4000984802F083FB2080F0B14FF4006002F05C
:102E50002FFF944EB189884208D1012003F054FE1F
:102E6000208888B103F0CCFC21880AE040F60600F7
:102E700002F01EFFB189884206D103F057FC218879
:102E800011B1884802F0A2FBDFF81C92DFF81CA207
:102E9000002600BF09EB86110520CAF8001003F0D8
:102EA00033FE208828B103F0ABFC21887D4802F076
:102EB0008DFB761C0A2EEDDBDFF8F491DFF8F4A130
:102EC000002600BFC6EBC60000EB061109EBC101EE
:102ED0000220CAF8001003F017FE208828B103F082
:102EE0008FFC21886F4802F071FB761CF6B2282E09
:102EF000E8D3FDF705FF064602216F48FDF7EEFE19
:102F000050EA070107D1711B322904D901274FF07C
:102F100000083546A6E050EA080163D1711BB1F5FF
:102F2000FA6F5FD99BF900004FF001085E4678B355
:102F3000042834D0401E02F0C1FE6420FDF7CCFD11
:102F400096F90000401E02F0E5FE6420FDF7C4FD86
:102F500096F90000401E02F0B1FE6420FDF7BCFDB2
:102F600096F90000401E02F0D5FE6420FDF7B4FD86
:102F700096F90000401E02F0A1FE96F90000401EE6
:102F800003F05EFB032002F099FE0020307069E040
:102F9000FFE7FDF7B5FE70600120307046E00320CA
:102FA00002F08CFE6420FDF797FD032002F0B2FED4
:102FB0006420FDF791FD032002F080FE6420FDF700
:102FC0008BFD032002F0A6FE6420FDF785FD0320A3
:102FD00002F074FE002003F033FB012003F030FB0D
:102FE0000220CDE701283DD187B3701B322839D9A3
:102FF00000273546B8F1000F34D19BF800005E463B
:1030000020B3FDF77DFE706096F9000004280BD018
:10301000401C307040B2012808D002280DD003288F
:1030200015D004281ED11AE00120F2E7002002F09A
:1030300071FE012002F042FE05E0002002F03EFE9B
:10304000012002F067FE022002F038FE0AE00020B4
:1030500002F034FE012002F031FE022000E00320E5
:1030600002F058FEFDF74CFEDBF804205946801AAA
:1030700042F21072904207D9087828B100208BF8EC
:103080000000032002F01AFE0C484FF0805101604E
:10309000BFF34F8FBFF36F8FD0E60000C00000205A
:1030A0000C000020CC130020E0360020DC000020C3
:1030B000D0190020D8000020000C014004ED00E0F1
:1030C0008CB0012002F08BF94FF08040416A6248D9
:1030D000ADF800100068614AADF802001268ADF862
:1030E0000420ADF814105F4CADF81820ADF81600B0
:1030F0004FF0000B5B464FF0FF325949A06904F0D6
:1031000097FD0020564FDFF85881183F05AE07F1B4
:10311000300AA1460B904D46D9F81C0004F051FB33
:1031200028B14FF0FF3202A9E86904F031FEFDF743
:10313000E7FD0B99401AB0F5FA7F02D9FDF7E0FDE3
:103140000B900024A946204603F064FA6D462DF842
:103150001400FDF7D5FD57F82410411A40480C38EB
:1031600040F82410FDF7CCFD47F8240036F8140091
:1031700035F8141047F6FF72431A13445200934275
:1031800022D988424FF6FF720BD2511A0844FDF73C
:1031900056F908EBC4030A93D3E90023FDF73BF982
:1031A0000AE0101A0844FDF74AF908EBC4030A9331
:1031B000D3E90023FDF78BF8DDF82830C3E90001DF
:1031C00099F8000060B12CE0081AFDF727F908EB28
:1031D000C4030793D3E90023FDF779F8079BEDE7D4
:1031E00008EBC4000AEBC401D0E90023D1E90001D7
:1031F000FDF70EF9FDF730F9002800DA4042022809
:103200000CDBBBF10A0F04D1204602F0AFFD4FF0FA
:10321000000B0BF1010000F0FF0B02E0204602F072
:103220004DFD08EBC400D0E900120AEBC400C0E970
:10323000001235F8140026F81400641C022C82DDFC
:1032400000235A1E0649D9F8180004F0F1FC0220A8
:1032500004F07AFB5FE700002404004024080040EB
:10326000E00200200C000020642002F05DFEFBE77D
:1032700010B5502080F31188BFF34F8FBFF36F8FCD
:1032800004F0C2FE18B104494FF0805008600020DD
:1032900080F3118810BD000004ED00E030B593B05C
:1032A00028216846FCF7B5FF14210AA8FCF7B1FFF6
:1032B000002401200F9410941194010412948DE8BD
:1032C000130004904FF4E010CDE908100225079593
:1032D0006846FEF78BFB08B172B6FEE70F20CDE91A
:1032E0000A054FF48060CDE90C4002210AA80E9433
:1032F000FEF780FA08B172B6FEE710200F90129424
:103300000FA8FEF701FA002801D072B6FEE713B04D
:1033100030BD70470148FFF783B8000094060020D5
:10332000F0B50268164B174C174D4FF08047984286
:1033300005D0B84203D0A04201D0A84203D122F068
:1033400070064A683243984205D0B84203D0A04282
:1033500001D0A84203D122F44074CA6822434C69C8
:1033600022F08002224302608A68C2620A68826296
:10337000984201D10969016301214161F0BD00005A
:10338000002C0140000400400008004010B501F08E
:103390001F030121046A99408C430462016A9A4028
:1033A0001143016210BD2DE9F041D0F8C032D0F8D0
:1033B000B822CAB101EB810500EB85040026E7695C
:1033C0003FB103EBC5039B6BB7FBF3F503FB157331
:1033D00023B1C2F814620020BDE8F08100231A4630
:1033E000E66100F060FCF6E70220F5E770B50546FF
:1033F000D0F8B84200F05BFBC4F80C02D5F8B80274
:1034000048B1D5F8BC12D4F80402CA6804F50371B7
:103410009047002070BD022070BD70B504460026A4
:10342000812100F097FA002501212046E56200F095
:1034300091FA82212046C4F86C5100F08BFA256481
:10344000D4F8B80248B1D4F8BC0204F52E74406830
:103450008047206800F0F7FD2560304670BD10B54C
:10346000D0E9AE4159B194F80002FF2807D08B682B
:1034700094F8012221469847FF2084F8000200209A
:1034800010BD00000A21018000487047AC010020F7
:103490004321018000487047FC0100204321018046
:1034A00000487047B8010020432101800048704760
:1034B000400200202DE9F04104460026007C4FF434
:1034C0000077012590B3402302228121204600F09D
:1034D00043FB4023E56202220121204600F03CFB31
:1034E0000823032282212046C4F86C5100F034FBEB
:1034F0004FF40770256400F0A7FDC4F8B802F8B1D6
:103500000546D4F8BC02006880470020C5F81402C4
:10351000C5F81802207CD5F8042298B14023012177
:10352000204600F025FB3046BDE8F081FFE73B4632
:1035300002228121204600F00FFB3B46E562CAE7EC
:103540000126F0E73B46EAE710B5D0F8B81269B1BA
:10355000027C002AD1F8042205D04023012100F08A
:1035600007FB002010BD4FF40073F7E7022010BDE9
:1035700002460220002902D00020C2F8BC12704787
:10358000D0F8B802C0F8041200207047D0F8B80292
:10359000C0F81022C0F80812002070472DE9FC4145
:1035A0000546D0F8B87200208DF80000ADF8040090
:1035B000064608780C4610F0600121D020293BD146
:1035C000E288AAB10006607807D5D5F8BC128B68EE
:1035D00039469847E288394626E087F80002A07904
:1035E00087F80102E2883946284600F04FF828E0C3
:1035F000D5F8BC12607800228B682146984720E0FD
:10360000607820B10A2809D00B2815D110E095F870
:103610009C02032810D1022201A905E095F89C0222
:10362000032809D101226946284600F049F808E03C
:1036300095F89C02032804D02146284600F01BF888
:1036400002263046BDE8FC8110B5D0F8B42252689D
:103650009047002010BD134610B50A46002100F027
:1036600087FA002010BD134610B50A46002100F06D
:103670001AFB002010BD10B50446802100F0F8FAB6
:103680002046BDE81040002100F0F2BA10B5032337
:10369000C0F85C21C0F89432C0F8602113460A4695
:1036A000002100F065FA002010BD10B505210023AF
:1036B000C0F894121A46194600F05AFA002010BDBC
:1036C00010B50223C261C0F89432026213460A4662
:1036D000002100F0E8FA002010BD10B504210023FD
:1036E000C0F894121A46194600F0DDFA002010BD09
:1036F00010B50A46024903A000F0DEF8004810BDEC
:10370000EC3C002043444320436F6E666967000031
:1037100012200880004870476801002010B50A4652
:10372000024903A000F0C8F8004810BDEC3C00209E
:1037300043444320496E746572666163650000000E
:1037400004200880004870476401002010B50A4634
:10375000024903A000F0B0F8004810BDEC3C002086
:1037600053435245454E204147454E4359000000C2
:1037700010B50A46024903A000F09EF8004810BDAB
:10378000EC3C0020456E636F6465725F746F5F523E
:10379000545452504D00000010B51A2008800A48B9
:1037A0000168001D0468001D0068081809D008227F
:1037B0000649FEF7F7FE0549042210312046FEF7C0
:1037C000F1FE0248801E10BDE8F7FF1F7E010020B9
:1037D000F8B504460020ADF8000048880D46010AFF
:1037E000082948D2DFE801F04704091747473C455C
:1037F000D4F8B012207C0A6819E0207C0226002848
:10380000D4F8B40205D0C16A6846884701464670BC
:103810003EE0816AF8E7C0B206282CD2DFE800F06B
:10382000030A1014181CD4F8B002426805E0694677
:1038300090471CE0D4F8B0028268E2B1207CF6E741
:10384000D4F8B002C268F8E7D4F8B0020269F4E72D
:10385000D4F8B0024269F0E7D4F8B0028269ECE72C
:10386000207C40B9D4F8B402416B684688470146D1
:103870000EE0207C20B129462046FFF7FCFEF8BD73
:10388000D4F8B402016B68468847014607204870A7
:10389000BDF8000048B1EA8852B1824200D9024620
:1038A000ADF800202046FFF70BFFE8880028E6D19E
:1038B0002046FFF712FFF8BD70B5002300281ED088
:1038C0000446002502E06D1CEDB2641C2678002E33
:1038D000F9D1022404EB450414801278CA545B1C0D
:1038E0000322CA5400245B1C06E0CA545B1CDAB2F3
:1038F0008C54521CD3B2401C0278002AF5D170BD02
:1039000001004FF0000004D0012901D0022901D0AC
:10391000022070470120704710B580B1D0F8B43252
:1039200013B10023C0F8B43209B1C0F8B0120121BC
:1039300080F89C12027000F0BFF8002010BD022039
:1039400010BD10B5D0F8C002FDF7F0FABDE8104088
:10395000FFF7D6BF10B5D0F8C002FDF7C1FABDE839
:103960001040FFF7CDBF2DE9F0411746044651B195
:10397000D4F8B40242691AB194F89C02032851D0D9
:103980000220BDE8F081D4F89432002504F114003F
:10399000022B03D0042B3AD0C3B33CE0D0E903633D
:1039A0009E4207D9F11AC1608AB239462046FFF714
:1039B0005AFE12E08068B0FBF3F103FB110199B9E4
:1039C000984211D3D4F8981288420DD200221146A1
:1039D0002046FFF748FEC4F8985200231A461946BD
:1039E000204600F0C5F816E0D4F8B402C16829B149
:1039F00094F89C02032801D1204688478021204664
:103A000000F036F92046FFF750FE04E0FFE7802182
:103A1000204600F02DF994F8A002012804D184F882
:103A2000A05201E0204690470020AAE770B5154655
:103A3000044649B1D4F8B40282691AB194F89C02E0
:103A4000032830D0022070BDD4F8941204F5AA7077
:103A5000032902D005291ED027E0D0E903218A429C
:103A60000BD9531AC3600846834200D303469AB267
:103A700029462046FFF7EFFD17E0D4F8B4020169AC
:103A800029B194F89C02032801D12046884720469A
:103A9000FFF723FE09E000200146C4F89402204607
:103AA00000F0E6F801E020469047002070BDD0F815
:103AB000C002FDF7ECBB000010B504461C481D49D0
:103AC000C0F8E842C4F8C002016008214160022148
:103AD000816000218161C1610162FDF727FD08B1AC
:103AE000FCF7ABFF0022D4F8C0021823114604F5FE
:103AF0003074FDF7C3F95823002280212068FDF7B8
:103B0000BDF9C023002281212068FDF7B7F94FF4E9
:103B10008873002201212068FDF7B0F94FF480730B
:103B2000002282212068FDF7A9F9002010BD0000C5
:103B3000DC480020005C00400A0601F07F01D0F85C
:103B4000C00201EB810100EBC10002D590F82A0010
:103B5000704790F86A01704710B51C461346D0F8BC
:103B6000C0022246FDF79CFBBDE81040FFF7C8BE2F
:103B700010B5D0F8C002FDF7C3FBBDE81040FFF759
:103B8000BFBE70B50022044640231146FFF7E4FF94
:103B900040260125C4F86461334600228021204676
:103BA000C4F85851FFF7D8FF6662A56184F89C52AB
:103BB0000020C4F894026060C4F8A402D4F8B802EB
:103BC00028B1D4F8B4020021426820469047002072
:103BD00070BD90F89C12042903D190F89D1280F8D2
:103BE0009C120020704710B590F89C12032904D154
:103BF000D0F8B412C96901B18847002010BD017422
:103C00000020704710B5D0F8C002FDF736FDBDE8C2
:103C10001040FFF775BE70B5044600F52A700546E2
:103C200000F04AF80120C4F89402B4F8AE02C4F8D7
:103C3000980294F8A80210F01F010AD001290DD0B3
:103C4000022910D000F08001204600F011F8002079
:103C500070BD2946204600F09EF8F8E72946204628
:103C600000F0CAF9F3E72946204600F01DF9EEE717
:103C700010B5D0F8C002FDF75CFBBDE81040FFF7BF
:103C80003FBE10B5D0F8C002FDF712FDBDE81040F0
:103C9000FFF736BE90F89C1280F89D12042180F840
:103CA0009C120020704710B5D0F8C002FDF77AFBD7
:103CB000BDE81040FFF724BE0A7802704A784270CF
:103CC0008A78CB7802EB032242800A794B7902EBA7
:103CD000032282808A79C97902EB0121C180704771
:103CE0000246002011B1C2F8B4127047022070479A
:103CF00010B5D0F8B42202241AB11268904700B966
:103D00000024204610BD000070B50E461E4D897877
:103D100004462970012931D894F89C0202280BD05E
:103D200003280FD031462046FFF7A5FC297820460E
:103D3000BDE87040FFF788BCD9B10320616084F80A
:103D40009C0209E071B16068884212D0C1B220467D
:103D5000FFF77AFC297861602046FFF7C9FF022847
:103D60000CD006E0022084F89C0220466160FFF738
:103D70006BFC2046BDE87040FFF7AFBC31462046E3
:103D8000BDE87040FFF777BCA801002010B5FFF731
:103D900078FF002010BD2DE9F0410A78002612F0CE
:103DA000600208D0202A01D0402A70D1D0F8B42275
:103DB000926890476DE04B78002201250A2B66D26D
:103DC000DFE803F0405D6557650805652C29FFF7BE
:103DD000FFFC5EE004468888D8B9C888C8B948881E
:103DE000802816D200F07F0794F89C02032810D098
:103DF00084F89E7239462046FFF704FF2046FFF7FD
:103E00006CFC1FB1022084F89C0242E084F89C52B2
:103E10003FE020463BE0FFF777FF3AE0CB88012BFD
:103E200035D190F89C32012B04D0022B02D0032B09
:103E30002DD104E08260012200F1080116E0012288
:103E4000011D13E090F89C22012A03D0022A01D020
:103E5000032A1CD1CA88022A19D1C560D0F8A4123D
:103E600009B10321C160022200F10C01FFF728FC17
:103E70000FE0498801290CD1C0F8A45211E090F854
:103E80009C32012B08D0022B06D0032B04D0FFF765
:103E9000F2FB3046BDE8F08149880129F9D1C0F82C
:103EA000A422FFF71AFCF4E72DE9F0410A46044684
:103EB00010780027097910F060030AD0202B01D078
:103EC000402B50D1D4F8B40211468368204698475D
:103ED0008FE0C0F34110012806D05078D0B30128FC
:103EE0002AD003283FD107E0D4F8B40211468368F2
:103EF0002046BDE8F041184794F89C02022802D001
:103F0000032872D10AE071B380296ED02046FFF7F2
:103F1000AFFE80212046FFF7ABFE6AE0508838B93B
:103F200031B1802904D0D08810B92046FFF7A0FE17
:103F30002046FFF7D2FB5CE094F89C020228E2D016
:103F4000032852D1508898BB4806F1D02046FFF78D
:103F5000F8FCEDE7FFE794F89C020026022803D066
:103F6000032842D112E040E009B180293DD1080682
:103F700001F07F0000EB800004EB800101D51431DB
:103F800001E001F5AA7102220E602AE0080601F0A4
:103F90000F0000EB800004EB80000AD5806920B39D
:103FA00001F07F0000EB800004EB800514350BE08E
:103FB0001FE0D0F85801C0B101F07F0000EB800095
:103FC00004EB800505F5AA7541B1802906D020468D
:103FD000FFF7B2FD10B10120286000E02E60022240
:103FE00029462046FFF76CFB03E011462046FFF709
:103FF00042FB3846BDE8F08170B5054608780C46AE
:1040000010F0600003D0202801D0402816D195F888
:104010009C02012803D0022801D003280ED1207968
:1040200001280BD8D5F8B402826828469047E18869
:10403000014306D12846FFF750FB02E02846FFF770
:104040001AFB002070BD704700487047BC46002036
:104050002DE9F0470C78002630F8243048F68F120E
:104060001340CA78002A7DD0012A7CD0022A02D0CF
:10407000032A7FD0012648F28002134320F824301F
:104080000D7830F8254048F68F731C402C431443BC
:1040900020F825400D7B48F2C00C48F6BF744CF266
:1040A00080074BF68F79EDB391F80080C24630F867
:1040B000285048F280181D4045EA080520F82A508B
:1040C000B0F8505091F80080054405EB0815B1F8A0
:1040D000088028F00108A5F80084B0F8505091F845
:1040E0000080054405EB0815B1F80A8028F00108A6
:1040F000A5F808844D78002D0D7830F825804FEA1A
:1041000048487DD0B8F1000F07DA30F8258008EA7A
:10411000030848EA070820F825800F7830F8275070
:104120006D0600E02CE006D530F827501D4045EA2A
:104130000C0520F82750CB780D78012B30F825306E
:1041400003EA040301D083F02003134320F8253051
:104150000B7830F8231001EA0901114320F82310ED
:10416000304602E003E008E004E0BDE8F08743F4F5
:10417000007380E743F4C0637DE743F480637AE72C
:104180004D782DB3B0F850500F78054405EB071566
:10419000CF8827F00107A5F800740F7830F8275072
:1041A0006D0606D530F827501D4045EA0C0520F86D
:1041B0002750CB78012B06D00B7830F82310214004
:1041C00081F02001C9E70B7830F823102140C4E7C3
:1041D000B0F850400D78044404EB0514CD8825F068
:1041E0000105A4F80854B0F850400D78044404EBDD
:1041F00005140D6904F20C4475B13E2D14D800E08D
:1042000030E04FEA550CED0701D00CF1010C4FF6F0
:10421000FF7505EA8C2511E0258825F4F8452580F1
:10422000258845F4004509E04FEA551CED0601D10B
:10423000ACF1010C4FF4004545EA8C2525800D7842
:1042400030F82540640405D530F825401C403C4337
:1042500020F825400B7830F8231001EA090181F499
:1042600040517AE7B8F1000F07DA30F8258008EA04
:10427000030848EA070820F825800F7830F827500F
:104280006D0606D530F827501D4045EA0C0520F88C
:1042900027500D7830F8253003EA090383F44053A2
:1042A000134320F825308EE7002070472DE9F043B6
:1042B00091F80C804F780A7848F6BF7C4BF68F79DE
:1042C00048F2800348F2C0054CF2800648F68F742D
:1042D000B8F1000F28D0002F30F822704FEA47477E
:1042E00048D0002F05DA30F822702740374320F8F5
:1042F00022700A7830F822707F0605D530F82270D7
:1043000027402F4320F822700D7830F825202240D6
:10431000324320F825200C7830F8242002EA0C02E1
:104320001A4320F824201AE07FB130F82260760684
:1043300005D530F8226026402E4320F822600A7806
:1043400030F8221001EA0C010EE030F822506D0422
:1043500005D530F822502540354320F822500A7800
:1043600030F8221001EA0901194320F82210002038
:10437000BDE8F083002F05DA30F82270274037437C
:1043800020F822700A7830F82260760605D530F8D9
:10439000226026402E4320F822600E7830F8262036
:1043A00022402A4320F826200C7830F8242002EA04
:1043B00009021A4320F82420C1E70020704700209A
:1043C0007047012120F8401F002101808180018277
:1043D0000846704730F8401F21F43F41018000201B
:1043E00070470020704730B50A7BB2BB4A7848F668
:1043F0008F7548F28004C2B10B7830F82320520642
:1044000007D530F823202A4048F2C0052A4320F877
:104410002320CA78012A20D00A7830F8221048F6E2
:10442000BF73194081F0200114E00A7830F822307F
:104430005B0407D530F822302B404CF280052B432B
:1044400020F822300A7830F822104BF68F7319408A
:1044500081F44051214320F82210002030BD10B5D6
:104460004A780978002A48F2800330F8212005D0E4
:1044700048F6BF74224082F0100204E04BF68F74BD
:10448000224082F480521A4320F82120002010BDDF
:104490002DE9F04F0D464A78097B04464FF000099C
:1044A00048F68F7A48F2800B4FF6FF774FF40048BA
:1044B000012A09D000297DD0E87802287BD0012884
:1044C0007AD00120BDE8F08FAE692869864200D914
:1044D000064681B1E97802291CD0287834F82010EA
:1044E0004906B4F85010214401EB001070D5A0F833
:1044F0000C646A8928E1B3B2EA882046696900F051
:104500005FFAB4F850002978204400EB0110A0F8BD
:10451000046435E1296A814276D9297834F821008A
:1045200048F2801200EA0A00104324F82100286AA9
:10453000801B2862287834F820104906697876D5DF
:1045400011B1012921D027E0B4F85010214401EB2A
:10455000001000F20C404EB13E2E0FD87108F20749
:1045600000D0491C07EA8121018015E0018821F46F
:10457000F8410180018841F40041F5E77109F20634
:1045800000D1491E48EA8121EEE7B4F85020111904
:1045900001EB0010A0F80C646A89B3B22046696987
:1045A00000F00EFA6869304468612969286A884217
:1045B00006D902E0EDE00DE178E1801B286202E01F
:1045C0000646C5F82090687818B1012824D02BE061
:1045D000B7E0B4F850002978204400EB011000F255
:1045E00004404EB13E2E10D87108F20700D0491C8D
:1045F00007EA8121018017E0018821F4F841018058
:10460000018841F40041F5E786E07109F20600D126
:10461000491E48EA8121EDE7B4F85000297820448A
:1046200000EB0110A0F804642A896FE0FFE711B1E4
:10463000012921D027E0B4F85010214401EB0010EB
:1046400000F204404EB13E2E0FD87108F20700D0A0
:10465000491C07EA8121018015E0018821F4F84115
:104660000180018841F40041F5E77109F20600D1AB
:10467000491E48EA8121EEE7B4F85010214401EBCD
:104680000010A0F804642A89B3B22046696900F0DA
:1046900097F96869304468612969286A884202D9B3
:1046A000801B286202E00646C5F82090687810B1A9
:1046B000012822D029E0B4F850002978204400EBEA
:1046C000011000F20C404EB13E2E0FD87108F207D7
:1046D00000D0491C07EA8121018016E0018821F4FD
:1046E000F8410180018841F40041F5E77109F206C3
:1046F00000D1491E48EA8121EEE7B4F850100819AC
:10470000297800EB0110A0F80C646A89B3B2204646
:10471000696900F055F933E02A7834F8220048F648
:104720008F63184040EA0B0024F82200B4F85000D0
:104730002A78204400EB02108BB2A0F804342A89B6
:10474000E5E7A0F804642A89B3B22046696900F05D
:1047500037F9687810B1012808D011E0297834F8C9
:10476000210048F2C00200EA0A0006E0297834F885
:1047700021004CF2800200EA0A00104324F82100D4
:10478000297834F8210048F6BF72104080F03000DC
:10479000DFE0A9692869814202D9091AA961B6E056
:1047A0000846C5F81890B2E0088820F4F840088060
:1047B000088840F400400BE03E2876D84208C00745
:1047C00000D0521C07EA822002E000BF48EA8220A3
:1047D0000880B6E092B9B4F850002978204400EB84
:1047E0000110296900F2044069B13E2913D84A0832
:1047F000C90700D0521C07EA82210180687888B17D
:10480000012832D03AE0018821F4F8410180018882
:1048100041F40041F1E74A09C90600D1521E48EAB5
:104820008221EAE7B4F850002978204400EB011017
:10483000296900F20C4049B13E290FD84A08C9073E
:1048400000D0521C07EA8221018017E0018821F480
:10485000F8410180018841F40041F5E74A09C906A1
:1048600000D1521E48EA8221EEE7B4F85010081930
:10487000297800EB0110298AA0F80C14E869B0B37C
:10488000297834F82100420401D5420603D444F2C9
:104890004002104255D134F8210048F2C00200EA2B
:1048A0000A00104324F821004BE03CE0A969286984
:1048B000814202D9091AA96102E00846C5F8189098
:1048C0008AB9B4F850102A78214401EB021101F2A0
:1048D000044168B13E2813D84208C30700D0521CD7
:1048E00007EA82220A80697889B1012921D028E06B
:1048F0000A8822F4F8420A800A8842F40042F1E76A
:104900004209C30600D1521E48EA8222EAE7B4F8FF
:1049100050102A78214401EB021101F20C410028C9
:104920007FF44AAF40E74209C0067FF44FAF521E02
:104930004CE7B4F8502011192A7801EB0211A1F8C4
:104940000C04297834F821004BF68F72104080F463
:10495000405040EA0B0024F821000020B2E500217D
:10496000A0F844104FF43F41A0F8401000207047D9
:104970000148FCF731BD0000DC480020B0F84400DD
:104980007047000010B500EB42005C0800F5806045
:1049900009D000BF30F8042B01F8012B120A01F8EE
:1049A000012B641EF6D1DA0701D00088087010BD13
:1049B0000020704711B98021A0F84C1000207047EA
:1049C00010B55B1C00EB42005B0800F5806009D06D
:1049D00011F8012B11F8014B42EA042220F8042BB4
:1049E0005B1EF5D110BDFEE70FB4084B10B504A94E
:1049F00002AA039800F0F2F8044602A9002000F091
:104A000070FC204610BC5DF814FB0000E352000867
:104A10000907090E002804DB00F1E02080F80014EB
:104A2000704700F00F0000F1E02080F8141D70477F
:104A300000487047C002002002E008C8121F08C1E9
:104A4000002AFAD170477047002001E001C1121F0F
:104A5000002AFBD1704700002DE9FF5F82B00021E2
:104A6000DDE90430020DDDF840B0034318D044F610
:104A70001050A2F2FF3242431514119801281FD0A2
:104A8000A5EB0B00401C5FEA000A4FF000064E4FFA
:104A9000DFF83891B046504615D5CAF1000413E04E
:104AA000119801244AA3012801D16FEA0B01029851
:104AB000119AC0E90031C0E9024206B0BDE8F09F9A
:104AC000CBF10000DFE704460021404A491842EBE1
:104AD0000450CDE9001012E0E00707D032463B4613
:104AE00040464946FBF7D4FD8046894632463B4660
:104AF00010461946FBF7CCFD06460F466410002C05
:104B0000EAD1DDE90401DDE90023BAF1000F06DA9C
:104B1000FBF7BEFD42464B46FBF7BAFD05E0FBF74F
:104B200029FE42464B46FBF725FE04460E46002270
:104B3000284BFBF7A7FE03D84FF0FF30014607E0F4
:104B40000022254B20463146FBF7C1FBFBF781FED7
:104B5000102409E0002C0ADB0A220023FBF7B1FC39
:104B6000039B30321A55641E50EA0102F2D1641CD4
:104B7000039AC4F111031444119A012A03D00122AB
:104B800008430DD10AE0084304D000204FF0110B78
:104B9000119072E7A3EB0B056D1E0DE05B4504DD84
:104BA0004FF0000205F1010504E003DA4FF00002C6
:104BB000A5F10105002AECD002981199C0E9023153
:104BC000C0E9004579E70000000014400000F03F14
:104BD000300000000000F0430000E03F2DE9FF4FEF
:104BE00095B09A46884606460025EEE1252877D1FD
:104BF00000242746F94A0121039400E0044316F8F3
:104C0000013F203B01FA03F01042F7D130782A2807
:104C100011D06FF02F033078A0F13002092A16D896
:104C2000039A44F0020402EB820203EB42021044B6
:104C3000761C0390EFE758F8042B0392002A03DA5E
:104C4000504244F40054039044F00204761C30783F
:104C50002E2816D116F8010F44F004042A280DD08E
:104C60006FF02F023078A0F13003092B09D807EB41
:104C7000870302EB4303C718761CF3E758F8047B5D
:104C8000761C30786C280FD006DC4C2817D06828AA
:104C90000DD06A2814D104E0742810D07A280FD1DE
:104CA0000DE044F400140AE044F4801401E044F4FC
:104CB00040147278824202D104F58014761C761C6E
:104CC000307866280BD013DC582877D009DC002810
:104CD00075D04528F6D04628F4D047281AD193E15C
:104CE00018E0632835D0642879D0652812D18BE18B
:104CF000702873D008DC6728F1D069286FD06E283F
:104D00000DD06F2806D1ACE073282CD0752874D054
:104D1000782853D05246179990476D1C54E1C4F33C
:104D20000250022809D003280DD0D8F8001004281A
:104D30000DD00D6008F1040846E1D8F80010EA171C
:104D4000C1E90052F6E7D8F800100D80F2E70D70C7
:104D5000F0E718F8041B8DF8001000208DF8010012
:104D6000EB46012003E058F804BB4FF0FF30610729
:104D70004FF0000102D40DE009F101018946B9426A
:104D80000FDA8145F8DB1BF809100029F4D108E09F
:104D900009F1010189468142FADB1BF8091000295B
:104DA000F6D103985346A0EB090721463846179AD7
:104DB00000F080FA284400EB090507E044E008E130
:104DC0000DE01BF8010B524617999047B9F1010904
:104DD000F7D2534621463846179AF2E039E00A21C5
:104DE000C4F302524FF0000B0091022A06D058F88B
:104DF000040BC117032A09D00AE023E008F10700D9
:104E000020F00702F2E80201904605E000B2C11767
:104E1000042A01D140B2C117002906DA0A4600214E
:104E2000404261EB02012D2202E0220504D52B2233
:104E30008DF80420012203E0E20701D02022F7E7E9
:104E4000914657E00A2100E010214FF0000B00913D
:104E50000BE010214FF0000B44F0040408270091F0
:104E600003E008204FF0000B0090C4F30252022A26
:104E700005D058F8040B0021032A08D008E008F1F7
:104E8000070020F00702F2E80201904603E080B23A
:104E9000042A00D1C0B24FF0000922072AD5327887
:104EA000702A07D0DDF800C08CF0100C5CEA0B0C07
:104EB00005D00EE040228DF80420012208E050EADF
:104EC000010306D030238DF804308DF8052002222E
:104ED0009146009B83F0080353EA0B030AD150EA82
:104EE000010201D1620705D530228DF804204FF070
:104EF00001097F1E3278582A04D039A20C920CAADC
:104F000002920BE03BA2F9E75B46009AFBF7D9FA65
:104F10000C9B9B5C029A521E0292137050EA010293
:104F2000F2D1029804A9081A00F1200B600702D5FB
:104F300024F4803400E001275F4502DDA7EB0B007D
:104F400000E0002000EB0B01009003984944401A58
:104F50000390E00306D453462146179A039800F0C5
:104F6000A9F90544002706E001A85246C05D17993B
:104F700090476D1C7F1C4F45F6DBE0030CD5534674
:104F80002146179A039800F095F9054404E0302073
:104F90005246179990476D1C0099481E00900029B1
:104FA000F5DC08E00298029952460078491C02910B
:104FB000179990476D1CBBF10001ABF1010BF1DCBF
:104FC0005BE100F065F90544761C307800287FF439
:104FD0000DAE19B02846BDE8F08F00000928010089
:104FE000303132333435363738396162636465665F
:104FF0000000000030313233343536373839414221
:105000004344454600000000600700D4062708F12D
:10501000070020F00700F0E80223804603F0004C70
:105020005FEA0C0001D097A009E0200501D596A009
:1050300005E0E00701D095A001E0AFF24C0013902D
:10504000307823F0004365280CD006DC452809D0D1
:1050500046281DD047287FD13BE0662818D0672816
:105060007AD136E00021112F01DB112000E0781CFD
:10507000CDE9000104A90CA8FFF7EEFCDDE90D0164
:105080000C9A4FF0000B07F10109109200914EE0CD
:105090004FF000400097CDE9011004A90CA8FFF7DC
:1050A000DBFCDDE90D020C9B0F994FF0000B9146E4
:1050B0001093009211B9791C00EB0109B7EB0900BC
:1050C00003D4C0F1FF3B07F10109A9EB07000190F0
:1050D00042E0012F00DA01270021112F01DD11200C
:1050E00000E03846CDE9000104A90CA8FFF7B4FCA4
:1050F000DDE90D010C9A00914FF0000BB9461092BA
:1051000021070FD4009A4A4503DA914601E0A9F13C
:105110000109B9F1010F05DD109AA9F10101515CF6
:105120003029F4D0B84202DA10F1040F03DA012179
:10513000CDE9011010E0002803DC8344A9EB000155
:1051400002E0411C494500DD8946A0EB0B00401CF4
:1051500001904FF000400290200705D40198484587
:1051600002DB4FF0FF30019000208DF84B000298D9
:105170000DF14B07B0F1004F25D002200C902B20F1
:105180000D90029800280CDA404202902D200D90DC
:1051900007E00A210298FBF77EF93031029007F808
:1051A000011D0C99481E0C900029F2DC0298002881
:1051B000EFD1791E0D980870307800F0200040F093
:1051C000450007F8020D11A8C01BC01D02901398DE
:1051D000007800B1012000EB0901019801EBE071BA
:1051E000029801440398401A401E0390E00306D43D
:1051F00053462146179A039800F05CF8054413982B
:10520000007818B15246179990476D1CE00323D5DA
:1052100053462146179A039800F04CF805441BE0CA
:10522000BBF1000F07DB0098584504DD1098179973
:1052300010F80B0001E01799302052469047019872
:105240000BF1010B401E05F10105019004D12E2048
:105250005246179990476D1CB9F10001A9F1010957
:10526000DEDC05E017F8010B5246179990476D1CDC
:105270000299481E02900029F4DC53462146179AF1
:1052800003989EE62D0000002B0000002000000087
:105290002DE9F041044600251E461746880404D433
:1052A00005E039462020B0476D1C641EF9D528461C
:1052B000BDE8F0812DE9F041044600251E469046E8
:1052C000C80301D5302700E02027880404D505E075
:1052D00041463846B0476D1C641EF9D52846BDE8E6
:1052E000F0810A68531C0B601070704730B513E0F2
:1052F0001468056824782C7015686D1C15600568A5
:105300006D1C05601D886D1E1D8085886D1E858045
:105310008C4201D1022030BD84881CB11C88002C35
:10532000E6D101E0188808B9002030BD10681C885B
:105330000078641E1C801468641C1460884201D1CB
:10534000032030BD18880028F0D1012030BD10B5F1
:105350000A44521E0BE04B780C7803EB04239BB2FB
:10536000184480B2984201D2401C80B2891C9142FC
:10537000F1D3914207D109780902084480B28842EA
:1053800001D2401C80B210BD0020704790F8201060
:1053900006291AD10E490978C90716D00D4A018A83
:1053A00013685A8A914206D9891A01825A8A416839
:1053B0001144416004E042681144416000210182CF
:1053C000012180F820100846704700207047000037
:1053D000BC000020D8000020D82000F075B910B51E
:1053E0000146D42000F0D5F90221D22000F0D1F9F5
:1053F000BDE81040642000F097BD000070B50A4D74
:1054000000F06004287884420CD003221F21A020E1
:1054100000F082F962092C70BDE870401F218020E5
:1054200000F07AB970BD00002C00002010B5454C8A
:105430000178FF222170417861708178A170C17874
:10544000E17001792171407960710021104600F00E
:1054500063F90220FBF740FB1D21002000F00EF94C
:105460000028F9D00021082000F086F900210C2046
:1054700000F082F940F6FF310A2000F07DF94FF488
:105480004061042000F078F941F2FF11062000F09D
:1054900073F9382000F018F940F00101382000F0CD
:1054A00078F90D21C02000F074F90021C12000F02E
:1054B00070F93222C221802000F02EF940F612410C
:1054C000C62000F059F91221C42000F062F940F220
:1054D000DC51CA2000F050F92178E42000F059F99D
:1054E0006178E52000F055F9A178E22000F051F94B
:1054F000E178E32000F04DF92179E02000F049F94E
:105500006179E12000F045F94FF48071102000F03E
:1055100023F940F27641142000F01EF91F20FFF716
:105520006DFFC0221B21802000F0F6F804221F210D
:10553000802000F0F1F8382000F0C6F80249087029
:1055400010BD000034000020000000202DE9FC41C7
:1055500007460E460024392000F0B6F880B31A4DF5
:10556000A88881B2002000F007F96946062000F003
:1055700063F8BDF800006860BDF80200001F84B247
:10558000B44200D93446BDF80400000601D400241A
:1055900003E03946204600F04FF80020385568688F
:1055A000401EB0F5406F02DB40F6FF3100E081B2F3
:1055B0000C2000F0E1F840221E21802000F0ACF821
:1055C0002046BDE8FC8100002C00002070B50C4690
:1055D00005460EE01C2000F077F8800709D58022F0
:1055E0001F21104600F098F880221F21A02000F013
:1055F00093F81F21002000F041F80007EAD44FF48F
:105600004061022000F0B8F804F5406081B2062045
:1056100000F0B2F807A1012000F060F8294620460A
:1056200000F05CF8BDE8704008221F21802000F0E7
:1056300073B80000783030002DE9F0410E4F0D4670
:1056400004464FF40046002231463846FBF753FB30
:105650003A20FDF7C1FB04E00020FDF7BDFB05F893
:10566000010B641EA4B2F7D231463846BDE8F041C2
:105670000122FBF740BB0000001001402DE9F04182
:10568000104F0C4605464FF400460022314638467E
:10569000FBF731FB04F01F002843FDF79DFB0020C2
:1056A000FDF79AFB200602D5FF20FDF795FBFDF7DD
:1056B00033FB0446012231463846FBF71CFB2046EB
:1056C000BDE8F0810010014010B50446FFF796FEDA
:1056D0002146BDE810400020FFF7D0BF2DE9F04182
:1056E0000C4F0D4604464FF4004600223146384622
:1056F000FBF701FB7A2001E015F8010BFDF76CFBCD
:10570000641EA4B2F8D231463846BDE8F041012209
:10571000FBF7F1BA001001402DE9F0410D4E14469F
:105720000F4680464FF40045002229463046FBF7DD
:10573000E2FA07F01F0040EA0800FDF74DFB2046A3
:10574000FDF74AFB29463046BDE8F0410122FBF750
:10575000D2BA00000010014010B50C460146D4201A
:1057600000F017F82146D62000F006F8EA20FFF7EF
:10577000ABFFC007FAD110BD70B50D460446C9B2E3
:1057800000F007F8290A641CE0B2BDE87040AFF3EE
:10579000008070B50C460546FFF730FE22462946CC
:1057A000BDE870404020FFF7B7BF000030B50446A9
:1057B000008889B050B1A0F580700D3809D0042858
:1057C0001CD000202080022009B030BD40F20D1016
:1057D0002080104D286801F0F4FF0028F4D04FF02D
:1057E000FF3206A9286802F0D3FADDE906230AA1F0
:1057F0006846FFF7F9F840F2111020806846FAF782
:105800002FFD02466946204600F060FE0028DDD1EB
:10581000DAE7000024000020256C66200D0A000055
:105820002DE9F04704460088002604F17408CF28CB
:105830007ED01CDCBE287CD00FDC04F1240504F1F2
:105840004C09992841D003DC70B3972872D12DE020
:105850009B284AD0B9286DD1A0E0BF38092869D269
:10586000DFE800F0B9C598989898D5DEC500E32820
:105870007ED00CDCD9287CD004DCD0287AD0D1288A
:1058800058D1B4E0DA2876D0DB2853D1AFE0EA284B
:1058900072D004DCE42870D0E5287BD1A7E0EC28A6
:1058A0006CD0F02876D161E0972020805C22AA4954
:1058B000204600F00BFE00286CD0A848A8A1027872
:1058C0004046FFF791F8992020804046FAF7C8FC3F
:1058D00002464146204600F0F9FD00285AD0282112
:1058E0002846FAF796FC9B2020800A21204600F0EB
:1058F000ABFD00284ED09BA12846FAF7B9FC050065
:105900002DD028214846FAF784FC28214046FAF792
:1059100080FC2846FAF7A4FC024629464846FAF7D6
:105920005FFC90A10020FAF7A3FC050017D002E06D
:1059300096E047E02EE0FAF793FC024629464046FF
:10594000FAF74EFC2846FAF78BFC20442C2180F80D
:1059500073604046FAF77AFC08B12E21017082A1EB
:105960004846FAF761FCB8B1F0202080062206E034
:10597000C8E09EE07DE0A5E0DCE0CCE0E3E07CA1D7
:10598000204600F0A3FD002804D07B4910200870B9
:1059900026800220BDE8F087B9202080012277A16F
:1059A000204600F093FD0028F4D075A14846FAF790
:1059B0003BFC764FF0B16AA140463A68FFF714F815
:1059C000BE2020800B2272A1204600F07FFD00281F
:1059D000E0D0BF2020804046FAF742FC0246414614
:1059E000204600F073FD0028D4D0C0209EE00222A3
:1059F00060A1A1E069A14846FAF716FC6A4DD8B14A
:105A000057A140462A68FEF7EFFFC52020800922F3
:105A100066A1204600F05AFD0028BBD0C620208099
:105A20004046FAF71DFC02464146204600F04EFD76
:105A30000028AFD0C72079E05FA14846FAF7F4FB11
:105A400018B34046FAF736FC386028214046FAF78A
:105A5000E0FB43A140463A68FEF7C6FFCF20208016
:105A60000F2257A1204600F031FD002892D0D0200F
:105A700020804046FAF7F4FB02464146204600F0FB
:105A800025FD002886D0D12050E051A14846FAF7E4
:105A9000CBFB18B34046FAF70DFC2860282140469E
:105AA000FAF7B7FB2EA140462A68FEF79DFFD920E2
:105AB00020800D2248A1204600F008FD002887D054
:105AC000DA2020804046FAF7CBFB024641462046CA
:105AD00000F0FCFC002887D0DB2027E042A14846EC
